{
    "contractName": "UserContract",
    "abi": [
        {
            "constant": false,
            "inputs": [
                {
                    "name": "name",
                    "type": "string"
                },
                {
                    "name": "surName",
                    "type": "string"
                }
            ],
            "name": "join",
            "outputs": [],
            "payable": false,
            "stateMutability": "nonpayable",
            "type": "function"
        },
        {
            "constant": true,
            "inputs": [
                {
                    "name": "addr",
                    "type": "address"
                }
            ],
            "name": "getUser",
            "outputs": [
                {
                    "name": "name",
                    "type": "string"
                },
                {
                    "name": "surName",
                    "type": "string"
                }
            ],
            "payable": false,
            "stateMutability": "view",
            "type": "function"
        },
        {
            "constant": true,
            "inputs": [],
            "name": "totalUsers",
            "outputs": [
                {
                    "name": "",
                    "type": "uint256"
                }
            ],
            "payable": false,
            "stateMutability": "view",
            "type": "function"
        },
        {
            "anonymous": false,
            "inputs": [
                {
                    "indexed": false,
                    "name": "",
                    "type": "address"
                },
                {
                    "indexed": false,
                    "name": "",
                    "type": "string"
                }
            ],
            "name": "onUserJoin",
            "type": "event"
        }
    ],
    "bytecode": "608060405234801561001057600080fd5b5061072c806100206000396000f3006080604052600436106100565763ffffffff7c010000000000000000000000000000000000000000000000000000000060003504166329803b21811461005b5780636f77926b146100f4578063bff1f9e114610200575b600080fd5b34801561006757600080fd5b506040805160206004803580820135601f81018490048402850184019095528484526100f294369492936024939284019190819084018382808284375050604080516020601f89358b018035918201839004830284018301909452808352979a9998810197919650918201945092508291508401838280828437509497506102279650505050505050565b005b34801561010057600080fd5b5061012273ffffffffffffffffffffffffffffffffffffffff60043516610490565b604051808060200180602001838103835285818151815260200191508051906020019080838360005b8381101561016357818101518382015260200161014b565b50505050905090810190601f1680156101905780820380516001836020036101000a031916815260200191505b50838103825284518152845160209182019186019080838360005b838110156101c35781810151838201526020016101ab565b50505050905090810190601f1680156101f05780820380516001836020036101000a031916815260200191505b5094505050505060405180910390f35b34801561020c57600080fd5b5061021561061f565b60408051918252519081900360200190f35b600061023233610626565b1561023c57600080fd5b50336000908152602081815260409091208351909161025f918391860190610651565b5081516102759060018301906020850190610651565b50336000818152600160208181526040808420805460ff1916841790556002805493840181559093527f405787fa12a823e0f2b7631cc41b3ba8828b3321ca811111fa75cd3aa3bb5ace909101805473ffffffffffffffffffffffffffffffffffffffff191684179055905185517fe09b23d908522dc53b9c99fdfa8f3f6ef1da413f0ae260dd33d3f87675cebd10939287928792908201918291908501908083835b602083106103375780518252601f199092019160209182019101610318565b6001836020036101000a038019825116818451168082178552505050505050905001807f200000000000000000000000000000000000000000000000000000000000000081525060010182805190602001908083835b602083106103ac5780518252601f19909201916020918201910161038d565b6001836020036101000a03801982511681845116808217855250505050505090500192505050604051602081830303815290604052604051808373ffffffffffffffffffffffffffffffffffffffff1673ffffffffffffffffffffffffffffffffffffffff16815260200180602001828103825283818151815260200191508051906020019080838360005b83811015610450578181015183820152602001610438565b50505050905090810190601f16801561047d5780820380516001836020036101000a031916815260200191505b50935050505060405180910390a1505050565b60608061049b6106cf565b6104a433610626565b156104ae57600080fd5b73ffffffffffffffffffffffffffffffffffffffff8416600090815260208181526040918290208251815460026001821615610100026000190190911604601f810184900490930281016060908101855293810183815290939192849284919084018282801561055f5780601f106105345761010080835404028352916020019161055f565b820191906000526020600020905b81548152906001019060200180831161054257829003601f168201915b50505050508152602001600182018054600181600116156101000203166002900480601f0160208091040260200160405190810160405280929190818152602001828054600181600116156101000203166002900480156106015780601f106105d657610100808354040283529160200191610601565b820191906000526020600020905b8154815290600101906020018083116105e457829003601f168201915b50505091909252505081516020909201519196919550909350505050565b6002545b90565b73ffffffffffffffffffffffffffffffffffffffff1660009081526001602052604090205460ff1690565b828054600181600116156101000203166002900490600052602060002090601f016020900481019282601f1061069257805160ff19168380011785556106bf565b828001600101855582156106bf579182015b828111156106bf5782518255916020019190600101906106a4565b506106cb9291506106e6565b5090565b604080518082019091526060808252602082015290565b61062391905b808211156106cb57600081556001016106ec5600a165627a7a72305820bae0e2e818a7b20bce978b5bd97791deaf2d4aade8c67965f558686074fc45a40029",
    "sourcePath": "e:/blockchain/compile-and-deploy/contracts/UserContract.sol",
    "compiler": {
        "name": "solc",
        "version": "0.4.25+commit.59dbf8f1"
    },
    "functionHashes": {
        "getUser(address)": "6f77926b",
        "join(string,string)": "29803b21",
        "totalUsers()": "bff1f9e1"
    },
    "gasEstimates": {
        "creation": {
            "codeDepositCost": "367200",
            "executionCost": "405",
            "totalCost": "367605"
        },
        "external": {
            "getUser(address)": "infinite",
            "join(string,string)": "infinite",
            "totalUsers()": "429"
        },
        "internal": {
            "userJoined(address)": "299"
        }
    }
}